{
  "contractName": "Pool",
  "abi": [
    {
      "inputs": [
        {
          "internalType": "address",
          "name": "_routerAddr",
          "type": "address"
        },
        {
          "internalType": "address",
          "name": "_cakeTokenAddr",
          "type": "address"
        },
        {
          "internalType": "address",
          "name": "_fakeFarmAddr",
          "type": "address"
        }
      ],
      "stateMutability": "nonpayable",
      "type": "constructor"
    },
    {
      "inputs": [],
      "name": "owner",
      "outputs": [
        {
          "internalType": "address",
          "name": "",
          "type": "address"
        }
      ],
      "stateMutability": "view",
      "type": "function",
      "constant": true
    },
    {
      "inputs": [
        {
          "internalType": "address",
          "name": "",
          "type": "address"
        }
      ],
      "name": "stakingAmts",
      "outputs": [
        {
          "internalType": "uint256",
          "name": "",
          "type": "uint256"
        }
      ],
      "stateMutability": "view",
      "type": "function",
      "constant": true
    },
    {
      "inputs": [
        {
          "internalType": "address",
          "name": "_contract",
          "type": "address"
        }
      ],
      "name": "setSwapper",
      "outputs": [],
      "stateMutability": "nonpayable",
      "type": "function"
    },
    {
      "inputs": [],
      "name": "deposit",
      "outputs": [],
      "stateMutability": "payable",
      "type": "function",
      "payable": true
    },
    {
      "inputs": [],
      "name": "withdraw",
      "outputs": [],
      "stateMutability": "nonpayable",
      "type": "function"
    },
    {
      "inputs": [],
      "name": "test",
      "outputs": [
        {
          "internalType": "string",
          "name": "",
          "type": "string"
        }
      ],
      "stateMutability": "pure",
      "type": "function",
      "constant": true
    }
  ],
  "bytecode": "0x608060405234801561001057600080fd5b5060405161088c38038061088c8339818101604052606081101561003357600080fd5b8101908080519060200190929190805190602001909291908051906020019092919050505033600860006101000a81548173ffffffffffffffffffffffffffffffffffffffff021916908373ffffffffffffffffffffffffffffffffffffffff16021790555082600460006101000a81548173ffffffffffffffffffffffffffffffffffffffff021916908373ffffffffffffffffffffffffffffffffffffffff16021790555081600560006101000a81548173ffffffffffffffffffffffffffffffffffffffff021916908373ffffffffffffffffffffffffffffffffffffffff16021790555080600660006101000a81548173ffffffffffffffffffffffffffffffffffffffff021916908373ffffffffffffffffffffffffffffffffffffffff16021790555073ae13d989dac2f0debff460ac112a837c89baa7cd600260006101000a81548173ffffffffffffffffffffffffffffffffffffffff021916908373ffffffffffffffffffffffffffffffffffffffff16021790555073f9f93cf501bfadb6494589cb4b4c15de49e85d0e600360006101000a81548173ffffffffffffffffffffffffffffffffffffffff021916908373ffffffffffffffffffffffffffffffffffffffff1602179055506000600a819055506005600781905550505050610664806102286000396000f3fe6080604052600436106100555760003560e01c80633ccfd60b1461005a5780633e97ead3146100715780638da5cb5b146100d65780639c82f2a414610117578063d0e30db014610168578063f8a8fd6d14610172575b600080fd5b34801561006657600080fd5b5061006f610202565b005b34801561007d57600080fd5b506100c06004803603602081101561009457600080fd5b81019080803573ffffffffffffffffffffffffffffffffffffffff169060200190929190505050610204565b6040518082815260200191505060405180910390f35b3480156100e257600080fd5b506100eb61021c565b604051808273ffffffffffffffffffffffffffffffffffffffff16815260200191505060405180910390f35b34801561012357600080fd5b506101666004803603602081101561013a57600080fd5b81019080803573ffffffffffffffffffffffffffffffffffffffff169060200190929190505050610242565b005b610170610286565b005b34801561017e57600080fd5b506101876105f1565b6040518080602001828103825283818151815260200191508051906020019080838360005b838110156101c75780820151818401526020810190506101ac565b50505050905090810190601f1680156101f45780820380516001836020036101000a031916815260200191505b509250505060405180910390f35b565b60096020528060005260406000206000915090505481565b600860009054906101000a900473ffffffffffffffffffffffffffffffffffffffff1681565b80600460006101000a81548173ffffffffffffffffffffffffffffffffffffffff021916908373ffffffffffffffffffffffffffffffffffffffff16021790555050565b6060600267ffffffffffffffff811180156102a057600080fd5b506040519080825280602002602001820160405280156102cf5781602001602082028036833780820191505090505b509050600260009054906101000a900473ffffffffffffffffffffffffffffffffffffffff168160008151811061030257fe5b602002602001019073ffffffffffffffffffffffffffffffffffffffff16908173ffffffffffffffffffffffffffffffffffffffff1681525050600360009054906101000a900473ffffffffffffffffffffffffffffffffffffffff168160018151811061036c57fe5b602002602001019073ffffffffffffffffffffffffffffffffffffffff16908173ffffffffffffffffffffffffffffffffffffffff16815250506060600460009054906101000a900473ffffffffffffffffffffffffffffffffffffffff1673ffffffffffffffffffffffffffffffffffffffff16637ff36ab5346000853063635f34e16040518663ffffffff1660e01b815260040180858152602001806020018473ffffffffffffffffffffffffffffffffffffffff168152602001838152602001828103825285818151815260200191508051906020019060200280838360005b8381101561046a57808201518184015260208101905061044f565b50505050905001955050505050506000604051808303818588803b15801561049157600080fd5b505af11580156104a5573d6000803e3d6000fd5b50505050506040513d6000823e3d601f19601f8201168201806040525060208110156104d057600080fd5b81019080805160405193929190846401000000008211156104f057600080fd5b8382019150602082018581111561050657600080fd5b825186602082028301116401000000008211171561052357600080fd5b8083526020830192505050908051906020019060200280838360005b8381101561055a57808201518184015260208101905061053f565b5050505090500160405250505090508060008151811061057657fe5b6020026020010151600960003373ffffffffffffffffffffffffffffffffffffffff1673ffffffffffffffffffffffffffffffffffffffff16815260200190815260200160002060008282540192505081905550806000815181106105d757fe5b602002602001015160008082825401925050819055505050565b60606040518060400160405280600381526020017f706f6f000000000000000000000000000000000000000000000000000000000081525090509056fea264697066735822122091e34627cf7667aa95f0b33a5013df64f7161fefb26bbaf8ae16836bac93c5d764736f6c634300060c0033",
  "immutableReferences": {},
  "source": "pragma solidity >=0.4.22 <0.8.0;\n\ninterface PancakeRouter {\n    function swapExactETHForTokens(\n        uint256 amountOutMin,\n        address[] calldata path,\n        address to,\n        uint256 deadline\n    ) external payable returns (uint256[] memory amounts);\n}\n\ninterface CakeToken {\n    /**\n     * @dev Moves `amount` tokens from the caller's account to `recipient`.\n     *\n     * Returns a boolean value indicating whether the operation succeeded.\n     *\n     * Emits a {Transfer} event.\n     */\n    function transfer(address recipient, uint256 amount)\n        external\n        returns (bool);\n\n    /**\n     * @dev Returns the amount of tokens owned by `account`.\n     */\n    function balanceOf(address account) external view returns (uint256);\n}\n\ninterface FakeFarm {\n    function stake() external returns (uint256);\n}\n\ncontract Pool {\n    uint256 totalAmt;\n    address counterAddr;\n    address WBNBAddr;\n    address cakeAddr;\n    PancakeRouter swapper;\n    CakeToken cakeContract;\n    FakeFarm fakeFarm;\n    uint256 baseYield;\n\n    address public owner;\n\n    mapping(address => uint256) public stakingAmts;\n    uint256 numPpl;\n    modifier onlyOwner() {\n        require(msg.sender == owner, \"Not owner\");\n        // Underscore is a special character only used inside\n        // a function modifier and it tells Solidity to\n        // execute the rest of the code.\n        _;\n    }\n\n    constructor(\n        address _routerAddr,\n        address _cakeTokenAddr,\n        address _fakeFarmAddr\n    ) public {\n        owner = msg.sender;\n        swapper = PancakeRouter(_routerAddr);\n        // cakeContract = CakeToken(0xf9f93cf501bfadb6494589cb4b4c15de49e85d0e);\n        cakeContract = CakeToken(_cakeTokenAddr);\n        fakeFarm = FakeFarm(_fakeFarmAddr);\n        WBNBAddr = 0xae13d989daC2f0dEbFf460aC112a837C89BAa7cd;\n        cakeAddr = 0xF9f93cF501BFaDB6494589Cb4b4C15dE49E85D0e;\n        numPpl = 0;\n        baseYield = 5;\n    }\n\n    function setSwapper(address _contract) public {\n        swapper = PancakeRouter(_contract);\n    }\n\n    function deposit() public payable {\n        address[] memory path = new address[](2);\n        path[0] = WBNBAddr;\n        path[1] = cakeAddr;\n        uint256[] memory amts = swapper.swapExactETHForTokens{value: msg.value}(\n            0,\n            path,\n            address(this),\n            1667183841\n        );\n\n        //increase user's amt by x cake units\n\n        // if(stakingAmts[msg.sender] == null){\n\n        // } else{\n\n        stakingAmts[msg.sender] += amts[0];\n        // }\n        totalAmt += amts[0];\n        // cakeContract.transfer(recipient, amount);\n    }\n\n    // function lottery() public onlyOwner {\n    //     fakeFarm.stake();\n\n    //     uint256 newTotal = cakeContract.balanceOf(address(this));\n    //     // for(uint256 i = 0; i<stakingAmts.)\n    // }\n\n    function withdraw() public {\n        // do lottery, pick wallets of participants proportional to deposit\n    }\n\n    function test() public pure returns (string memory) {\n        return \"poo\";\n    }\n}\n",
  "sourcePath": "/Users/kevinli/HackTX2021-Poolable/contracts/Pool.sol",
  "compiler": {
    "name": "solc",
    "version": "0.6.12+commit.27d51765.Emscripten.clang"
  },
  "schemaVersion": "3.2.3",
  "updatedAt": "2021-10-31T06:37:42.884Z",
  "networkType": "ethereum",
  "devdoc": {
    "kind": "dev",
    "methods": {},
    "version": 1
  },
  "userdoc": {
    "kind": "user",
    "methods": {},
    "version": 1
  }
}